{
  "_format": "hh-sol-artifact-1",
  "contractName": "GuessFast",
  "sourceName": "contracts/GuessFast.sol",
  "abi": [
    {
      "inputs": [],
      "stateMutability": "nonpayable",
      "type": "constructor"
    },
    {
      "anonymous": false,
      "inputs": [
        {
          "indexed": true,
          "internalType": "address",
          "name": "player",
          "type": "address"
        },
        {
          "indexed": false,
          "internalType": "uint256",
          "name": "amount",
          "type": "uint256"
        }
      ],
      "name": "Deposit",
      "type": "event"
    },
    {
      "anonymous": false,
      "inputs": [
        {
          "indexed": true,
          "internalType": "uint256",
          "name": "tournamentId",
          "type": "uint256"
        },
        {
          "indexed": true,
          "internalType": "address",
          "name": "player",
          "type": "address"
        }
      ],
      "name": "PlayerJoined",
      "type": "event"
    },
    {
      "anonymous": false,
      "inputs": [
        {
          "indexed": true,
          "internalType": "uint256",
          "name": "id",
          "type": "uint256"
        },
        {
          "indexed": false,
          "internalType": "uint256",
          "name": "entryFee",
          "type": "uint256"
        },
        {
          "indexed": false,
          "internalType": "uint256",
          "name": "endTime",
          "type": "uint256"
        }
      ],
      "name": "TournamentCreated",
      "type": "event"
    },
    {
      "anonymous": false,
      "inputs": [
        {
          "indexed": true,
          "internalType": "uint256",
          "name": "tournamentId",
          "type": "uint256"
        },
        {
          "indexed": true,
          "internalType": "address",
          "name": "winner",
          "type": "address"
        },
        {
          "indexed": false,
          "internalType": "uint256",
          "name": "prizeAmount",
          "type": "uint256"
        }
      ],
      "name": "TournamentEnded",
      "type": "event"
    },
    {
      "anonymous": false,
      "inputs": [
        {
          "indexed": true,
          "internalType": "address",
          "name": "player",
          "type": "address"
        },
        {
          "indexed": false,
          "internalType": "uint256",
          "name": "amount",
          "type": "uint256"
        }
      ],
      "name": "WinningsClaimed",
      "type": "event"
    },
    {
      "anonymous": false,
      "inputs": [
        {
          "indexed": true,
          "internalType": "address",
          "name": "to",
          "type": "address"
        },
        {
          "indexed": false,
          "internalType": "uint256",
          "name": "amount",
          "type": "uint256"
        }
      ],
      "name": "Withdrawal",
      "type": "event"
    },
    {
      "inputs": [],
      "name": "claimWinnings",
      "outputs": [],
      "stateMutability": "nonpayable",
      "type": "function"
    },
    {
      "inputs": [
        {
          "internalType": "uint256",
          "name": "entryFee",
          "type": "uint256"
        },
        {
          "internalType": "uint256",
          "name": "duration",
          "type": "uint256"
        }
      ],
      "name": "createTournament",
      "outputs": [],
      "stateMutability": "nonpayable",
      "type": "function"
    },
    {
      "inputs": [
        {
          "internalType": "uint256",
          "name": "",
          "type": "uint256"
        },
        {
          "internalType": "address",
          "name": "",
          "type": "address"
        }
      ],
      "name": "hasJoined",
      "outputs": [
        {
          "internalType": "bool",
          "name": "",
          "type": "bool"
        }
      ],
      "stateMutability": "view",
      "type": "function"
    },
    {
      "inputs": [
        {
          "internalType": "uint256",
          "name": "tournamentId",
          "type": "uint256"
        }
      ],
      "name": "joinTournament",
      "outputs": [],
      "stateMutability": "payable",
      "type": "function"
    },
    {
      "inputs": [],
      "name": "owner",
      "outputs": [
        {
          "internalType": "address",
          "name": "",
          "type": "address"
        }
      ],
      "stateMutability": "view",
      "type": "function"
    },
    {
      "inputs": [
        {
          "internalType": "uint256",
          "name": "tournamentId",
          "type": "uint256"
        },
        {
          "internalType": "address",
          "name": "winner",
          "type": "address"
        }
      ],
      "name": "payout",
      "outputs": [],
      "stateMutability": "nonpayable",
      "type": "function"
    },
    {
      "inputs": [],
      "name": "tournamentCount",
      "outputs": [
        {
          "internalType": "uint256",
          "name": "",
          "type": "uint256"
        }
      ],
      "stateMutability": "view",
      "type": "function"
    },
    {
      "inputs": [
        {
          "internalType": "uint256",
          "name": "",
          "type": "uint256"
        }
      ],
      "name": "tournaments",
      "outputs": [
        {
          "internalType": "uint256",
          "name": "id",
          "type": "uint256"
        },
        {
          "internalType": "uint256",
          "name": "entryFee",
          "type": "uint256"
        },
        {
          "internalType": "uint256",
          "name": "endTime",
          "type": "uint256"
        },
        {
          "internalType": "uint256",
          "name": "prizePool",
          "type": "uint256"
        },
        {
          "internalType": "address",
          "name": "winner",
          "type": "address"
        },
        {
          "internalType": "bool",
          "name": "isOpen",
          "type": "bool"
        },
        {
          "internalType": "bool",
          "name": "isPaidOut",
          "type": "bool"
        }
      ],
      "stateMutability": "view",
      "type": "function"
    },
    {
      "inputs": [
        {
          "internalType": "address",
          "name": "",
          "type": "address"
        }
      ],
      "name": "winnings",
      "outputs": [
        {
          "internalType": "uint256",
          "name": "",
          "type": "uint256"
        }
      ],
      "stateMutability": "view",
      "type": "function"
    }
  ],
  "bytecode": "0x6080604052348015600f57600080fd5b50336000806101000a81548173ffffffffffffffffffffffffffffffffffffffff021916908373ffffffffffffffffffffffffffffffffffffffff1602179055506110e78061005f6000396000f3fe6080604052600436106100865760003560e01c8063b401faf111610059578063b401faf114610161578063be95e01a14610178578063d115cac6146101a1578063d1e8a365146101bd578063ea3a1499146101e657610086565b8063681947191461008b5780636e2b2c7c146100c85780637503e1b7146100f35780638da5cb5b14610136575b600080fd5b34801561009757600080fd5b506100b260048036038101906100ad9190610abf565b610223565b6040516100bf9190610b1a565b60405180910390f35b3480156100d457600080fd5b506100dd610252565b6040516100ea9190610b44565b60405180910390f35b3480156100ff57600080fd5b5061011a60048036038101906101159190610b5f565b610258565b60405161012d9796959493929190610b9b565b60405180910390f35b34801561014257600080fd5b5061014b6102d4565b6040516101589190610c0a565b60405180910390f35b34801561016d57600080fd5b506101766102f8565b005b34801561018457600080fd5b5061019f600480360381019061019a9190610abf565b6104c2565b005b6101bb60048036038101906101b69190610b5f565b61072f565b005b3480156101c957600080fd5b506101e460048036038101906101df9190610c25565b610886565b005b3480156101f257600080fd5b5061020d60048036038101906102089190610c65565b610a0e565b60405161021a9190610b44565b60405180910390f35b60036020528160005260406000206020528060005260406000206000915091509054906101000a900460ff1681565b60015481565b60026020528060005260406000206000915090508060000154908060010154908060020154908060030154908060040160009054906101000a900473ffffffffffffffffffffffffffffffffffffffff16908060040160149054906101000a900460ff16908060040160159054906101000a900460ff16905087565b60008054906101000a900473ffffffffffffffffffffffffffffffffffffffff1681565b6000600460003373ffffffffffffffffffffffffffffffffffffffff1673ffffffffffffffffffffffffffffffffffffffff1681526020019081526020016000205490506000811161037f576040517f08c379a000000000000000000000000000000000000000000000000000000000815260040161037690610cef565b60405180910390fd5b6000600460003373ffffffffffffffffffffffffffffffffffffffff1673ffffffffffffffffffffffffffffffffffffffff1681526020019081526020016000208190555060003373ffffffffffffffffffffffffffffffffffffffff16826040516103ea90610d40565b60006040518083038185875af1925050503d8060008114610427576040519150601f19603f3d011682016040523d82523d6000602084013e61042c565b606091505b5050905080610470576040517f08c379a000000000000000000000000000000000000000000000000000000000815260040161046790610da1565b60405180910390fd5b3373ffffffffffffffffffffffffffffffffffffffff167f1a31e733a172afcf46074b3106c17f0c298e226442682a03c1e99ce256139ec2836040516104b69190610b44565b60405180910390a25050565b60008054906101000a900473ffffffffffffffffffffffffffffffffffffffff1673ffffffffffffffffffffffffffffffffffffffff163373ffffffffffffffffffffffffffffffffffffffff1614610550576040517f08c379a000000000000000000000000000000000000000000000000000000000815260040161054790610e0d565b60405180910390fd5b60006002600084815260200190815260200160002090508060040160159054906101000a900460ff16156105b9576040517f08c379a00000000000000000000000000000000000000000000000000000000081526004016105b090610e79565b60405180910390fd5b818160040160006101000a81548173ffffffffffffffffffffffffffffffffffffffff021916908373ffffffffffffffffffffffffffffffffffffffff16021790555060018160040160156101000a81548160ff02191690831515021790555060008160040160146101000a81548160ff021916908315150217905550600081600301541180156106775750600073ffffffffffffffffffffffffffffffffffffffff168273ffffffffffffffffffffffffffffffffffffffff1614155b156106d7578060030154600460008473ffffffffffffffffffffffffffffffffffffffff1673ffffffffffffffffffffffffffffffffffffffff16815260200190815260200160002060008282546106cf9190610ec8565b925050819055505b8173ffffffffffffffffffffffffffffffffffffffff16837f8941bade03a3d102784a43ef492d1a5dc2ad4f31419c6f7786234532b108d09983600301546040516107229190610b44565b60405180910390a3505050565b60006002600083815260200190815260200160002090508060040160149054906101000a900460ff16610797576040517f08c379a000000000000000000000000000000000000000000000000000000000815260040161078e90610f48565b60405180910390fd5b806002015442106107dd576040517f08c379a00000000000000000000000000000000000000000000000000000000081526004016107d490610fb4565b60405180910390fd5b80600101543414610823576040517f08c379a000000000000000000000000000000000000000000000000000000000815260040161081a90611020565b60405180910390fd5b348160030160008282546108379190610ec8565b925050819055503373ffffffffffffffffffffffffffffffffffffffff16827f87969bc7faf902221a147b95ceba76e011c5efb0339a0a8ee7a2bb82d9cfbbd660405160405180910390a35050565b6001600081548092919061089990611040565b91905055506040518060e00160405280600154815260200183815260200182426108c39190610ec8565b815260200160008152602001600073ffffffffffffffffffffffffffffffffffffffff168152602001600115158152602001600015158152506002600060015481526020019081526020016000206000820151816000015560208201518160010155604082015181600201556060820151816003015560808201518160040160006101000a81548173ffffffffffffffffffffffffffffffffffffffff021916908373ffffffffffffffffffffffffffffffffffffffff16021790555060a08201518160040160146101000a81548160ff02191690831515021790555060c08201518160040160156101000a81548160ff0219169083151502179055509050506001547f09b4669ac50d210406348214d633b1b5737e7ffe5e0c66bf5321529589f7cd1c8383426109f49190610ec8565b604051610a02929190611088565b60405180910390a25050565b60046020528060005260406000206000915090505481565b600080fd5b6000819050919050565b610a3e81610a2b565b8114610a4957600080fd5b50565b600081359050610a5b81610a35565b92915050565b600073ffffffffffffffffffffffffffffffffffffffff82169050919050565b6000610a8c82610a61565b9050919050565b610a9c81610a81565b8114610aa757600080fd5b50565b600081359050610ab981610a93565b92915050565b60008060408385031215610ad657610ad5610a26565b5b6000610ae485828601610a4c565b9250506020610af585828601610aaa565b9150509250929050565b60008115159050919050565b610b1481610aff565b82525050565b6000602082019050610b2f6000830184610b0b565b92915050565b610b3e81610a2b565b82525050565b6000602082019050610b596000830184610b35565b92915050565b600060208284031215610b7557610b74610a26565b5b6000610b8384828501610a4c565b91505092915050565b610b9581610a81565b82525050565b600060e082019050610bb0600083018a610b35565b610bbd6020830189610b35565b610bca6040830188610b35565b610bd76060830187610b35565b610be46080830186610b8c565b610bf160a0830185610b0b565b610bfe60c0830184610b0b565b98975050505050505050565b6000602082019050610c1f6000830184610b8c565b92915050565b60008060408385031215610c3c57610c3b610a26565b5b6000610c4a85828601610a4c565b9250506020610c5b85828601610a4c565b9150509250929050565b600060208284031215610c7b57610c7a610a26565b5b6000610c8984828501610aaa565b91505092915050565b600082825260208201905092915050565b7f4e6f2077696e6e696e677320746f20636c61696d000000000000000000000000600082015250565b6000610cd9601483610c92565b9150610ce482610ca3565b602082019050919050565b60006020820190508181036000830152610d0881610ccc565b9050919050565b600081905092915050565b50565b6000610d2a600083610d0f565b9150610d3582610d1a565b600082019050919050565b6000610d4b82610d1d565b9150819050919050565b7f5472616e73666572206661696c65640000000000000000000000000000000000600082015250565b6000610d8b600f83610c92565b9150610d9682610d55565b602082019050919050565b60006020820190508181036000830152610dba81610d7e565b9050919050565b7f4f6e6c79206f776e657200000000000000000000000000000000000000000000600082015250565b6000610df7600a83610c92565b9150610e0282610dc1565b602082019050919050565b60006020820190508181036000830152610e2681610dea565b9050919050565b7f416c72656164792070616964206f757400000000000000000000000000000000600082015250565b6000610e63601083610c92565b9150610e6e82610e2d565b602082019050919050565b60006020820190508181036000830152610e9281610e56565b9050919050565b7f4e487b7100000000000000000000000000000000000000000000000000000000600052601160045260246000fd5b6000610ed382610a2b565b9150610ede83610a2b565b9250828201905080821115610ef657610ef5610e99565b5b92915050565b7f546f75726e616d656e74206e6f74206f70656e00000000000000000000000000600082015250565b6000610f32601383610c92565b9150610f3d82610efc565b602082019050919050565b60006020820190508181036000830152610f6181610f25565b9050919050565b7f546f75726e616d656e7420656e64656400000000000000000000000000000000600082015250565b6000610f9e601083610c92565b9150610fa982610f68565b602082019050919050565b60006020820190508181036000830152610fcd81610f91565b9050919050565b7f496e636f727265637420656e7472792066656500000000000000000000000000600082015250565b600061100a601383610c92565b915061101582610fd4565b602082019050919050565b6000602082019050818103600083015261103981610ffd565b9050919050565b600061104b82610a2b565b91507fffffffffffffffffffffffffffffffffffffffffffffffffffffffffffffffff820361107d5761107c610e99565b5b600182019050919050565b600060408201905061109d6000830185610b35565b6110aa6020830184610b35565b939250505056fea26469706673582212200da53fdef70652ed28bc82222f6130730cb4425a9cd98faf655d4348bcd52d6f64736f6c634300081c0033",
  "linkReferences": {},
  "deployedLinkReferences": {}
}