{
  "_format": "hh-sol-artifact-1",
  "contractName": "GuessFast",
  "sourceName": "contracts/GuessFast.sol",
  "abi": [
    {
      "inputs": [],
      "stateMutability": "nonpayable",
      "type": "constructor"
    },
    {
      "anonymous": false,
      "inputs": [
        {
          "indexed": true,
          "internalType": "address",
          "name": "player",
          "type": "address"
        },
        {
          "indexed": false,
          "internalType": "uint256",
          "name": "amount",
          "type": "uint256"
        }
      ],
      "name": "Deposit",
      "type": "event"
    },
    {
      "anonymous": false,
      "inputs": [
        {
          "indexed": true,
          "internalType": "uint256",
          "name": "tournamentId",
          "type": "uint256"
        },
        {
          "indexed": true,
          "internalType": "address",
          "name": "player",
          "type": "address"
        }
      ],
      "name": "PlayerJoined",
      "type": "event"
    },
    {
      "anonymous": false,
      "inputs": [
        {
          "indexed": true,
          "internalType": "uint256",
          "name": "id",
          "type": "uint256"
        },
        {
          "indexed": false,
          "internalType": "uint256",
          "name": "entryFee",
          "type": "uint256"
        },
        {
          "indexed": false,
          "internalType": "uint256",
          "name": "endTime",
          "type": "uint256"
        }
      ],
      "name": "TournamentCreated",
      "type": "event"
    },
    {
      "anonymous": false,
      "inputs": [
        {
          "indexed": true,
          "internalType": "uint256",
          "name": "tournamentId",
          "type": "uint256"
        },
        {
          "indexed": true,
          "internalType": "address",
          "name": "winner",
          "type": "address"
        },
        {
          "indexed": false,
          "internalType": "uint256",
          "name": "prizeAmount",
          "type": "uint256"
        }
      ],
      "name": "TournamentEnded",
      "type": "event"
    },
    {
      "anonymous": false,
      "inputs": [
        {
          "indexed": true,
          "internalType": "address",
          "name": "player",
          "type": "address"
        },
        {
          "indexed": false,
          "internalType": "uint256",
          "name": "amount",
          "type": "uint256"
        }
      ],
      "name": "WinningsClaimed",
      "type": "event"
    },
    {
      "anonymous": false,
      "inputs": [
        {
          "indexed": true,
          "internalType": "address",
          "name": "to",
          "type": "address"
        },
        {
          "indexed": false,
          "internalType": "uint256",
          "name": "amount",
          "type": "uint256"
        }
      ],
      "name": "Withdrawal",
      "type": "event"
    },
    {
      "inputs": [],
      "name": "claimWinnings",
      "outputs": [],
      "stateMutability": "nonpayable",
      "type": "function"
    },
    {
      "inputs": [
        {
          "internalType": "uint256",
          "name": "entryFee",
          "type": "uint256"
        },
        {
          "internalType": "uint256",
          "name": "duration",
          "type": "uint256"
        }
      ],
      "name": "createTournament",
      "outputs": [],
      "stateMutability": "nonpayable",
      "type": "function"
    },
    {
      "inputs": [
        {
          "internalType": "uint256",
          "name": "",
          "type": "uint256"
        },
        {
          "internalType": "address",
          "name": "",
          "type": "address"
        }
      ],
      "name": "hasJoined",
      "outputs": [
        {
          "internalType": "bool",
          "name": "",
          "type": "bool"
        }
      ],
      "stateMutability": "view",
      "type": "function"
    },
    {
      "inputs": [
        {
          "internalType": "uint256",
          "name": "tournamentId",
          "type": "uint256"
        }
      ],
      "name": "joinTournament",
      "outputs": [],
      "stateMutability": "payable",
      "type": "function"
    },
    {
      "inputs": [],
      "name": "owner",
      "outputs": [
        {
          "internalType": "address",
          "name": "",
          "type": "address"
        }
      ],
      "stateMutability": "view",
      "type": "function"
    },
    {
      "inputs": [
        {
          "internalType": "uint256",
          "name": "tournamentId",
          "type": "uint256"
        },
        {
          "internalType": "address",
          "name": "winner",
          "type": "address"
        },
        {
          "internalType": "bytes",
          "name": "signature",
          "type": "bytes"
        }
      ],
      "name": "payout",
      "outputs": [],
      "stateMutability": "nonpayable",
      "type": "function"
    },
    {
      "inputs": [],
      "name": "tournamentCount",
      "outputs": [
        {
          "internalType": "uint256",
          "name": "",
          "type": "uint256"
        }
      ],
      "stateMutability": "view",
      "type": "function"
    },
    {
      "inputs": [
        {
          "internalType": "uint256",
          "name": "",
          "type": "uint256"
        }
      ],
      "name": "tournaments",
      "outputs": [
        {
          "internalType": "uint256",
          "name": "id",
          "type": "uint256"
        },
        {
          "internalType": "uint256",
          "name": "entryFee",
          "type": "uint256"
        },
        {
          "internalType": "uint256",
          "name": "endTime",
          "type": "uint256"
        },
        {
          "internalType": "uint256",
          "name": "prizePool",
          "type": "uint256"
        },
        {
          "internalType": "address",
          "name": "winner",
          "type": "address"
        },
        {
          "internalType": "bool",
          "name": "isOpen",
          "type": "bool"
        },
        {
          "internalType": "bool",
          "name": "isPaidOut",
          "type": "bool"
        }
      ],
      "stateMutability": "view",
      "type": "function"
    },
    {
      "inputs": [
        {
          "internalType": "address",
          "name": "",
          "type": "address"
        }
      ],
      "name": "winnings",
      "outputs": [
        {
          "internalType": "uint256",
          "name": "",
          "type": "uint256"
        }
      ],
      "stateMutability": "view",
      "type": "function"
    }
  ],
  "bytecode": "0x6080604052348015600f57600080fd5b50336000806101000a81548173ffffffffffffffffffffffffffffffffffffffff021916908373ffffffffffffffffffffffffffffffffffffffff1602179055506117e98061005f6000396000f3fe6080604052600436106100865760003560e01c8063b401faf111610059578063b401faf114610161578063c5daeac614610178578063d115cac6146101a1578063d1e8a365146101bd578063ea3a1499146101e657610086565b8063681947191461008b5780636e2b2c7c146100c85780637503e1b7146100f35780638da5cb5b14610136575b600080fd5b34801561009757600080fd5b506100b260048036038101906100ad9190610d1b565b610223565b6040516100bf9190610d76565b60405180910390f35b3480156100d457600080fd5b506100dd610252565b6040516100ea9190610da0565b60405180910390f35b3480156100ff57600080fd5b5061011a60048036038101906101159190610dbb565b610258565b60405161012d9796959493929190610df7565b60405180910390f35b34801561014257600080fd5b5061014b6102d4565b6040516101589190610e66565b60405180910390f35b34801561016d57600080fd5b506101766102f8565b005b34801561018457600080fd5b5061019f600480360381019061019a9190610fc7565b6104c2565b005b6101bb60048036038101906101b69190610dbb565b6108a5565b005b3480156101c957600080fd5b506101e460048036038101906101df9190611036565b6109fc565b005b3480156101f257600080fd5b5061020d60048036038101906102089190611076565b610b84565b60405161021a9190610da0565b60405180910390f35b60036020528160005260406000206020528060005260406000206000915091509054906101000a900460ff1681565b60015481565b60026020528060005260406000206000915090508060000154908060010154908060020154908060030154908060040160009054906101000a900473ffffffffffffffffffffffffffffffffffffffff16908060040160149054906101000a900460ff16908060040160159054906101000a900460ff16905087565b60008054906101000a900473ffffffffffffffffffffffffffffffffffffffff1681565b6000600460003373ffffffffffffffffffffffffffffffffffffffff1673ffffffffffffffffffffffffffffffffffffffff1681526020019081526020016000205490506000811161037f576040517f08c379a000000000000000000000000000000000000000000000000000000000815260040161037690611100565b60405180910390fd5b6000600460003373ffffffffffffffffffffffffffffffffffffffff1673ffffffffffffffffffffffffffffffffffffffff1681526020019081526020016000208190555060003373ffffffffffffffffffffffffffffffffffffffff16826040516103ea90611151565b60006040518083038185875af1925050503d8060008114610427576040519150601f19603f3d011682016040523d82523d6000602084013e61042c565b606091505b5050905080610470576040517f08c379a0000000000000000000000000000000000000000000000000000000008152600401610467906111b2565b60405180910390fd5b3373ffffffffffffffffffffffffffffffffffffffff167f1a31e733a172afcf46074b3106c17f0c298e226442682a03c1e99ce256139ec2836040516104b69190610da0565b60405180910390a25050565b60006002600085815260200190815260200160002090508060020154421015610520576040517f08c379a00000000000000000000000000000000000000000000000000000000081526004016105179061121e565b60405180910390fd5b8060040160159054906101000a900460ff1615610572576040517f08c379a00000000000000000000000000000000000000000000000000000000081526004016105699061128a565b60405180910390fd5b8273ffffffffffffffffffffffffffffffffffffffff163373ffffffffffffffffffffffffffffffffffffffff16146105e0576040517f08c379a00000000000000000000000000000000000000000000000000000000081526004016105d7906112f6565b60405180910390fd5b600084846040516020016105f592919061137f565b604051602081830303815290604052805190602001209050600081604051602001610620919061142d565b60405160208183030381529060405280519060200120905060006106448286610b9c565b905060008054906101000a900473ffffffffffffffffffffffffffffffffffffffff1673ffffffffffffffffffffffffffffffffffffffff168173ffffffffffffffffffffffffffffffffffffffff16146106d4576040517f08c379a00000000000000000000000000000000000000000000000000000000081526004016106cb9061149f565b60405180910390fd5b858460040160006101000a81548173ffffffffffffffffffffffffffffffffffffffff021916908373ffffffffffffffffffffffffffffffffffffffff16021790555060018460040160156101000a81548160ff02191690831515021790555060008460040160146101000a81548160ff021916908315150217905550600084600301541180156107925750600073ffffffffffffffffffffffffffffffffffffffff168673ffffffffffffffffffffffffffffffffffffffff1614155b156108495760008673ffffffffffffffffffffffffffffffffffffffff1685600301546040516107c190611151565b60006040518083038185875af1925050503d80600081146107fe576040519150601f19603f3d011682016040523d82523d6000602084013e610803565b606091505b5050905080610847576040517f08c379a000000000000000000000000000000000000000000000000000000000815260040161083e906111b2565b60405180910390fd5b505b8573ffffffffffffffffffffffffffffffffffffffff16877f8941bade03a3d102784a43ef492d1a5dc2ad4f31419c6f7786234532b108d09986600301546040516108949190610da0565b60405180910390a350505050505050565b60006002600083815260200190815260200160002090508060040160149054906101000a900460ff1661090d576040517f08c379a00000000000000000000000000000000000000000000000000000000081526004016109049061150b565b60405180910390fd5b80600201544210610953576040517f08c379a000000000000000000000000000000000000000000000000000000000815260040161094a90611577565b60405180910390fd5b80600101543414610999576040517f08c379a0000000000000000000000000000000000000000000000000000000008152600401610990906115e3565b60405180910390fd5b348160030160008282546109ad9190611632565b925050819055503373ffffffffffffffffffffffffffffffffffffffff16827f87969bc7faf902221a147b95ceba76e011c5efb0339a0a8ee7a2bb82d9cfbbd660405160405180910390a35050565b60016000815480929190610a0f90611666565b91905055506040518060e0016040528060015481526020018381526020018242610a399190611632565b815260200160008152602001600073ffffffffffffffffffffffffffffffffffffffff168152602001600115158152602001600015158152506002600060015481526020019081526020016000206000820151816000015560208201518160010155604082015181600201556060820151816003015560808201518160040160006101000a81548173ffffffffffffffffffffffffffffffffffffffff021916908373ffffffffffffffffffffffffffffffffffffffff16021790555060a08201518160040160146101000a81548160ff02191690831515021790555060c08201518160040160156101000a81548160ff0219169083151502179055509050506001547f09b4669ac50d210406348214d633b1b5737e7ffe5e0c66bf5321529589f7cd1c838342610b6a9190611632565b604051610b789291906116ae565b60405180910390a25050565b60046020528060005260406000206000915090505481565b600080600080610bab85610c0b565b92509250925060018682858560405160008152602001604052604051610bd49493929190611702565b6020604051602081039080840390855afa158015610bf6573d6000803e3d6000fd5b50505060206040510351935050505092915050565b60008060006041845114610c54576040517f08c379a0000000000000000000000000000000000000000000000000000000008152600401610c4b90611793565b60405180910390fd5b6020840151925060408401519150606084015160001a90509193909250565b6000604051905090565b600080fd5b600080fd5b6000819050919050565b610c9a81610c87565b8114610ca557600080fd5b50565b600081359050610cb781610c91565b92915050565b600073ffffffffffffffffffffffffffffffffffffffff82169050919050565b6000610ce882610cbd565b9050919050565b610cf881610cdd565b8114610d0357600080fd5b50565b600081359050610d1581610cef565b92915050565b60008060408385031215610d3257610d31610c7d565b5b6000610d4085828601610ca8565b9250506020610d5185828601610d06565b9150509250929050565b60008115159050919050565b610d7081610d5b565b82525050565b6000602082019050610d8b6000830184610d67565b92915050565b610d9a81610c87565b82525050565b6000602082019050610db56000830184610d91565b92915050565b600060208284031215610dd157610dd0610c7d565b5b6000610ddf84828501610ca8565b91505092915050565b610df181610cdd565b82525050565b600060e082019050610e0c600083018a610d91565b610e196020830189610d91565b610e266040830188610d91565b610e336060830187610d91565b610e406080830186610de8565b610e4d60a0830185610d67565b610e5a60c0830184610d67565b98975050505050505050565b6000602082019050610e7b6000830184610de8565b92915050565b600080fd5b600080fd5b6000601f19601f8301169050919050565b7f4e487b7100000000000000000000000000000000000000000000000000000000600052604160045260246000fd5b610ed482610e8b565b810181811067ffffffffffffffff82111715610ef357610ef2610e9c565b5b80604052505050565b6000610f06610c73565b9050610f128282610ecb565b919050565b600067ffffffffffffffff821115610f3257610f31610e9c565b5b610f3b82610e8b565b9050602081019050919050565b82818337600083830152505050565b6000610f6a610f6584610f17565b610efc565b905082815260208101848484011115610f8657610f85610e86565b5b610f91848285610f48565b509392505050565b600082601f830112610fae57610fad610e81565b5b8135610fbe848260208601610f57565b91505092915050565b600080600060608486031215610fe057610fdf610c7d565b5b6000610fee86828701610ca8565b9350506020610fff86828701610d06565b925050604084013567ffffffffffffffff8111156110205761101f610c82565b5b61102c86828701610f99565b9150509250925092565b6000806040838503121561104d5761104c610c7d565b5b600061105b85828601610ca8565b925050602061106c85828601610ca8565b9150509250929050565b60006020828403121561108c5761108b610c7d565b5b600061109a84828501610d06565b91505092915050565b600082825260208201905092915050565b7f4e6f2077696e6e696e677320746f20636c61696d000000000000000000000000600082015250565b60006110ea6014836110a3565b91506110f5826110b4565b602082019050919050565b60006020820190508181036000830152611119816110dd565b9050919050565b600081905092915050565b50565b600061113b600083611120565b91506111468261112b565b600082019050919050565b600061115c8261112e565b9150819050919050565b7f5472616e73666572206661696c65640000000000000000000000000000000000600082015250565b600061119c600f836110a3565b91506111a782611166565b602082019050919050565b600060208201905081810360008301526111cb8161118f565b9050919050565b7f546f75726e616d656e74206e6f7420656e646564000000000000000000000000600082015250565b60006112086014836110a3565b9150611213826111d2565b602082019050919050565b60006020820190508181036000830152611237816111fb565b9050919050565b7f416c72656164792070616964206f757400000000000000000000000000000000600082015250565b60006112746010836110a3565b915061127f8261123e565b602082019050919050565b600060208201905081810360008301526112a381611267565b9050919050565b7f4f6e6c792077696e6e65722063616e20636c61696d0000000000000000000000600082015250565b60006112e06015836110a3565b91506112eb826112aa565b602082019050919050565b6000602082019050818103600083015261130f816112d3565b9050919050565b6000819050919050565b61133161132c82610c87565b611316565b82525050565b60008160601b9050919050565b600061134f82611337565b9050919050565b600061136182611344565b9050919050565b61137961137482610cdd565b611356565b82525050565b600061138b8285611320565b60208201915061139b8284611368565b6014820191508190509392505050565b600081905092915050565b7f19457468657265756d205369676e6564204d6573736167653a0a333200000000600082015250565b60006113ec601c836113ab565b91506113f7826113b6565b601c82019050919050565b6000819050919050565b6000819050919050565b61142761142282611402565b61140c565b82525050565b6000611438826113df565b91506114448284611416565b60208201915081905092915050565b7f496e76616c6964207369676e6174757265000000000000000000000000000000600082015250565b60006114896011836110a3565b915061149482611453565b602082019050919050565b600060208201905081810360008301526114b88161147c565b9050919050565b7f546f75726e616d656e74206e6f74206f70656e00000000000000000000000000600082015250565b60006114f56013836110a3565b9150611500826114bf565b602082019050919050565b60006020820190508181036000830152611524816114e8565b9050919050565b7f546f75726e616d656e7420656e64656400000000000000000000000000000000600082015250565b60006115616010836110a3565b915061156c8261152b565b602082019050919050565b6000602082019050818103600083015261159081611554565b9050919050565b7f496e636f727265637420656e7472792066656500000000000000000000000000600082015250565b60006115cd6013836110a3565b91506115d882611597565b602082019050919050565b600060208201905081810360008301526115fc816115c0565b9050919050565b7f4e487b7100000000000000000000000000000000000000000000000000000000600052601160045260246000fd5b600061163d82610c87565b915061164883610c87565b92508282019050808211156116605761165f611603565b5b92915050565b600061167182610c87565b91507fffffffffffffffffffffffffffffffffffffffffffffffffffffffffffffffff82036116a3576116a2611603565b5b600182019050919050565b60006040820190506116c36000830185610d91565b6116d06020830184610d91565b9392505050565b6116e081611402565b82525050565b600060ff82169050919050565b6116fc816116e6565b82525050565b600060808201905061171760008301876116d7565b61172460208301866116f3565b61173160408301856116d7565b61173e60608301846116d7565b95945050505050565b7f496e76616c6964207369676e6174757265206c656e6774680000000000000000600082015250565b600061177d6018836110a3565b915061178882611747565b602082019050919050565b600060208201905081810360008301526117ac81611770565b905091905056fea2646970667358221220b52568cf31298e5da397a7d27c0fb37fae74e1938037d459334a00c1126eb03d64736f6c634300081c0033",
  "linkReferences": {},
  "deployedLinkReferences": {}
}