{
  "_format": "hh-sol-artifact-1",
  "contractName": "GuessFast",
  "sourceName": "contracts/GuessFast.sol",
  "abi": [
    {
      "inputs": [],
      "stateMutability": "nonpayable",
      "type": "constructor"
    },
    {
      "anonymous": false,
      "inputs": [
        {
          "indexed": true,
          "internalType": "address",
          "name": "player",
          "type": "address"
        },
        {
          "indexed": false,
          "internalType": "uint256",
          "name": "amount",
          "type": "uint256"
        }
      ],
      "name": "Deposit",
      "type": "event"
    },
    {
      "anonymous": false,
      "inputs": [
        {
          "indexed": true,
          "internalType": "uint256",
          "name": "tournamentId",
          "type": "uint256"
        },
        {
          "indexed": true,
          "internalType": "address",
          "name": "player",
          "type": "address"
        }
      ],
      "name": "PlayerJoined",
      "type": "event"
    },
    {
      "anonymous": false,
      "inputs": [
        {
          "indexed": true,
          "internalType": "uint256",
          "name": "id",
          "type": "uint256"
        },
        {
          "indexed": false,
          "internalType": "uint256",
          "name": "entryFee",
          "type": "uint256"
        },
        {
          "indexed": false,
          "internalType": "uint256",
          "name": "endTime",
          "type": "uint256"
        }
      ],
      "name": "TournamentCreated",
      "type": "event"
    },
    {
      "anonymous": false,
      "inputs": [
        {
          "indexed": true,
          "internalType": "uint256",
          "name": "tournamentId",
          "type": "uint256"
        },
        {
          "indexed": true,
          "internalType": "address",
          "name": "winner",
          "type": "address"
        },
        {
          "indexed": false,
          "internalType": "uint256",
          "name": "prizeAmount",
          "type": "uint256"
        }
      ],
      "name": "TournamentEnded",
      "type": "event"
    },
    {
      "anonymous": false,
      "inputs": [
        {
          "indexed": true,
          "internalType": "address",
          "name": "player",
          "type": "address"
        },
        {
          "indexed": false,
          "internalType": "uint256",
          "name": "amount",
          "type": "uint256"
        }
      ],
      "name": "WinningsClaimed",
      "type": "event"
    },
    {
      "anonymous": false,
      "inputs": [
        {
          "indexed": true,
          "internalType": "address",
          "name": "to",
          "type": "address"
        },
        {
          "indexed": false,
          "internalType": "uint256",
          "name": "amount",
          "type": "uint256"
        }
      ],
      "name": "Withdrawal",
      "type": "event"
    },
    {
      "inputs": [],
      "name": "claimWinnings",
      "outputs": [],
      "stateMutability": "nonpayable",
      "type": "function"
    },
    {
      "inputs": [
        {
          "internalType": "uint256",
          "name": "entryFee",
          "type": "uint256"
        },
        {
          "internalType": "uint256",
          "name": "duration",
          "type": "uint256"
        }
      ],
      "name": "createTournament",
      "outputs": [],
      "stateMutability": "nonpayable",
      "type": "function"
    },
    {
      "inputs": [
        {
          "internalType": "uint256",
          "name": "",
          "type": "uint256"
        },
        {
          "internalType": "address",
          "name": "",
          "type": "address"
        }
      ],
      "name": "hasJoined",
      "outputs": [
        {
          "internalType": "bool",
          "name": "",
          "type": "bool"
        }
      ],
      "stateMutability": "view",
      "type": "function"
    },
    {
      "inputs": [
        {
          "internalType": "uint256",
          "name": "tournamentId",
          "type": "uint256"
        }
      ],
      "name": "joinTournament",
      "outputs": [],
      "stateMutability": "payable",
      "type": "function"
    },
    {
      "inputs": [],
      "name": "owner",
      "outputs": [
        {
          "internalType": "address",
          "name": "",
          "type": "address"
        }
      ],
      "stateMutability": "view",
      "type": "function"
    },
    {
      "inputs": [
        {
          "internalType": "uint256",
          "name": "tournamentId",
          "type": "uint256"
        },
        {
          "internalType": "address",
          "name": "winner",
          "type": "address"
        },
        {
          "internalType": "bytes",
          "name": "signature",
          "type": "bytes"
        }
      ],
      "name": "payout",
      "outputs": [],
      "stateMutability": "nonpayable",
      "type": "function"
    },
    {
      "inputs": [],
      "name": "tournamentCount",
      "outputs": [
        {
          "internalType": "uint256",
          "name": "",
          "type": "uint256"
        }
      ],
      "stateMutability": "view",
      "type": "function"
    },
    {
      "inputs": [
        {
          "internalType": "uint256",
          "name": "",
          "type": "uint256"
        }
      ],
      "name": "tournaments",
      "outputs": [
        {
          "internalType": "uint256",
          "name": "id",
          "type": "uint256"
        },
        {
          "internalType": "uint256",
          "name": "entryFee",
          "type": "uint256"
        },
        {
          "internalType": "uint256",
          "name": "endTime",
          "type": "uint256"
        },
        {
          "internalType": "uint256",
          "name": "prizePool",
          "type": "uint256"
        },
        {
          "internalType": "address",
          "name": "winner",
          "type": "address"
        },
        {
          "internalType": "bool",
          "name": "isOpen",
          "type": "bool"
        },
        {
          "internalType": "bool",
          "name": "isPaidOut",
          "type": "bool"
        }
      ],
      "stateMutability": "view",
      "type": "function"
    },
    {
      "inputs": [
        {
          "internalType": "address",
          "name": "",
          "type": "address"
        }
      ],
      "name": "winnings",
      "outputs": [
        {
          "internalType": "uint256",
          "name": "",
          "type": "uint256"
        }
      ],
      "stateMutability": "view",
      "type": "function"
    }
  ],
  "bytecode": "0x6080604052348015600f57600080fd5b50336000806101000a81548173ffffffffffffffffffffffffffffffffffffffff021916908373ffffffffffffffffffffffffffffffffffffffff1602179055506117928061005f6000396000f3fe6080604052600436106100865760003560e01c8063b401faf111610059578063b401faf114610161578063c5daeac614610178578063d115cac6146101a1578063d1e8a365146101bd578063ea3a1499146101e657610086565b8063681947191461008b5780636e2b2c7c146100c85780637503e1b7146100f35780638da5cb5b14610136575b600080fd5b34801561009757600080fd5b506100b260048036038101906100ad9190610cc4565b610223565b6040516100bf9190610d1f565b60405180910390f35b3480156100d457600080fd5b506100dd610252565b6040516100ea9190610d49565b60405180910390f35b3480156100ff57600080fd5b5061011a60048036038101906101159190610d64565b610258565b60405161012d9796959493929190610da0565b60405180910390f35b34801561014257600080fd5b5061014b6102d4565b6040516101589190610e0f565b60405180910390f35b34801561016d57600080fd5b506101766102f8565b005b34801561018457600080fd5b5061019f600480360381019061019a9190610f70565b6104c2565b005b6101bb60048036038101906101b69190610d64565b61084e565b005b3480156101c957600080fd5b506101e460048036038101906101df9190610fdf565b6109a5565b005b3480156101f257600080fd5b5061020d6004803603810190610208919061101f565b610b2d565b60405161021a9190610d49565b60405180910390f35b60036020528160005260406000206020528060005260406000206000915091509054906101000a900460ff1681565b60015481565b60026020528060005260406000206000915090508060000154908060010154908060020154908060030154908060040160009054906101000a900473ffffffffffffffffffffffffffffffffffffffff16908060040160149054906101000a900460ff16908060040160159054906101000a900460ff16905087565b60008054906101000a900473ffffffffffffffffffffffffffffffffffffffff1681565b6000600460003373ffffffffffffffffffffffffffffffffffffffff1673ffffffffffffffffffffffffffffffffffffffff1681526020019081526020016000205490506000811161037f576040517f08c379a0000000000000000000000000000000000000000000000000000000008152600401610376906110a9565b60405180910390fd5b6000600460003373ffffffffffffffffffffffffffffffffffffffff1673ffffffffffffffffffffffffffffffffffffffff1681526020019081526020016000208190555060003373ffffffffffffffffffffffffffffffffffffffff16826040516103ea906110fa565b60006040518083038185875af1925050503d8060008114610427576040519150601f19603f3d011682016040523d82523d6000602084013e61042c565b606091505b5050905080610470576040517f08c379a00000000000000000000000000000000000000000000000000000000081526004016104679061115b565b60405180910390fd5b3373ffffffffffffffffffffffffffffffffffffffff167f1a31e733a172afcf46074b3106c17f0c298e226442682a03c1e99ce256139ec2836040516104b69190610d49565b60405180910390a25050565b60006002600085815260200190815260200160002090508060020154421015610520576040517f08c379a0000000000000000000000000000000000000000000000000000000008152600401610517906111c7565b60405180910390fd5b8060040160159054906101000a900460ff1615610572576040517f08c379a000000000000000000000000000000000000000000000000000000000815260040161056990611233565b60405180910390fd5b8273ffffffffffffffffffffffffffffffffffffffff163373ffffffffffffffffffffffffffffffffffffffff16146105e0576040517f08c379a00000000000000000000000000000000000000000000000000000000081526004016105d79061129f565b60405180910390fd5b600084846040516020016105f5929190611328565b60405160208183030381529060405280519060200120905060008160405160200161062091906113d6565b60405160208183030381529060405280519060200120905060006106448286610b45565b905060008054906101000a900473ffffffffffffffffffffffffffffffffffffffff1673ffffffffffffffffffffffffffffffffffffffff168173ffffffffffffffffffffffffffffffffffffffff16146106d4576040517f08c379a00000000000000000000000000000000000000000000000000000000081526004016106cb90611448565b60405180910390fd5b858460040160006101000a81548173ffffffffffffffffffffffffffffffffffffffff021916908373ffffffffffffffffffffffffffffffffffffffff16021790555060018460040160156101000a81548160ff02191690831515021790555060008460040160146101000a81548160ff021916908315150217905550600084600301541180156107925750600073ffffffffffffffffffffffffffffffffffffffff168673ffffffffffffffffffffffffffffffffffffffff1614155b156107f2578360030154600460008873ffffffffffffffffffffffffffffffffffffffff1673ffffffffffffffffffffffffffffffffffffffff16815260200190815260200160002060008282546107ea9190611497565b925050819055505b8573ffffffffffffffffffffffffffffffffffffffff16877f8941bade03a3d102784a43ef492d1a5dc2ad4f31419c6f7786234532b108d099866003015460405161083d9190610d49565b60405180910390a350505050505050565b60006002600083815260200190815260200160002090508060040160149054906101000a900460ff166108b6576040517f08c379a00000000000000000000000000000000000000000000000000000000081526004016108ad90611517565b60405180910390fd5b806002015442106108fc576040517f08c379a00000000000000000000000000000000000000000000000000000000081526004016108f390611583565b60405180910390fd5b80600101543414610942576040517f08c379a0000000000000000000000000000000000000000000000000000000008152600401610939906115ef565b60405180910390fd5b348160030160008282546109569190611497565b925050819055503373ffffffffffffffffffffffffffffffffffffffff16827f87969bc7faf902221a147b95ceba76e011c5efb0339a0a8ee7a2bb82d9cfbbd660405160405180910390a35050565b600160008154809291906109b89061160f565b91905055506040518060e00160405280600154815260200183815260200182426109e29190611497565b815260200160008152602001600073ffffffffffffffffffffffffffffffffffffffff168152602001600115158152602001600015158152506002600060015481526020019081526020016000206000820151816000015560208201518160010155604082015181600201556060820151816003015560808201518160040160006101000a81548173ffffffffffffffffffffffffffffffffffffffff021916908373ffffffffffffffffffffffffffffffffffffffff16021790555060a08201518160040160146101000a81548160ff02191690831515021790555060c08201518160040160156101000a81548160ff0219169083151502179055509050506001547f09b4669ac50d210406348214d633b1b5737e7ffe5e0c66bf5321529589f7cd1c838342610b139190611497565b604051610b21929190611657565b60405180910390a25050565b60046020528060005260406000206000915090505481565b600080600080610b5485610bb4565b92509250925060018682858560405160008152602001604052604051610b7d94939291906116ab565b6020604051602081039080840390855afa158015610b9f573d6000803e3d6000fd5b50505060206040510351935050505092915050565b60008060006041845114610bfd576040517f08c379a0000000000000000000000000000000000000000000000000000000008152600401610bf49061173c565b60405180910390fd5b6020840151925060408401519150606084015160001a90509193909250565b6000604051905090565b600080fd5b600080fd5b6000819050919050565b610c4381610c30565b8114610c4e57600080fd5b50565b600081359050610c6081610c3a565b92915050565b600073ffffffffffffffffffffffffffffffffffffffff82169050919050565b6000610c9182610c66565b9050919050565b610ca181610c86565b8114610cac57600080fd5b50565b600081359050610cbe81610c98565b92915050565b60008060408385031215610cdb57610cda610c26565b5b6000610ce985828601610c51565b9250506020610cfa85828601610caf565b9150509250929050565b60008115159050919050565b610d1981610d04565b82525050565b6000602082019050610d346000830184610d10565b92915050565b610d4381610c30565b82525050565b6000602082019050610d5e6000830184610d3a565b92915050565b600060208284031215610d7a57610d79610c26565b5b6000610d8884828501610c51565b91505092915050565b610d9a81610c86565b82525050565b600060e082019050610db5600083018a610d3a565b610dc26020830189610d3a565b610dcf6040830188610d3a565b610ddc6060830187610d3a565b610de96080830186610d91565b610df660a0830185610d10565b610e0360c0830184610d10565b98975050505050505050565b6000602082019050610e246000830184610d91565b92915050565b600080fd5b600080fd5b6000601f19601f8301169050919050565b7f4e487b7100000000000000000000000000000000000000000000000000000000600052604160045260246000fd5b610e7d82610e34565b810181811067ffffffffffffffff82111715610e9c57610e9b610e45565b5b80604052505050565b6000610eaf610c1c565b9050610ebb8282610e74565b919050565b600067ffffffffffffffff821115610edb57610eda610e45565b5b610ee482610e34565b9050602081019050919050565b82818337600083830152505050565b6000610f13610f0e84610ec0565b610ea5565b905082815260208101848484011115610f2f57610f2e610e2f565b5b610f3a848285610ef1565b509392505050565b600082601f830112610f5757610f56610e2a565b5b8135610f67848260208601610f00565b91505092915050565b600080600060608486031215610f8957610f88610c26565b5b6000610f9786828701610c51565b9350506020610fa886828701610caf565b925050604084013567ffffffffffffffff811115610fc957610fc8610c2b565b5b610fd586828701610f42565b9150509250925092565b60008060408385031215610ff657610ff5610c26565b5b600061100485828601610c51565b925050602061101585828601610c51565b9150509250929050565b60006020828403121561103557611034610c26565b5b600061104384828501610caf565b91505092915050565b600082825260208201905092915050565b7f4e6f2077696e6e696e677320746f20636c61696d000000000000000000000000600082015250565b600061109360148361104c565b915061109e8261105d565b602082019050919050565b600060208201905081810360008301526110c281611086565b9050919050565b600081905092915050565b50565b60006110e46000836110c9565b91506110ef826110d4565b600082019050919050565b6000611105826110d7565b9150819050919050565b7f5472616e73666572206661696c65640000000000000000000000000000000000600082015250565b6000611145600f8361104c565b91506111508261110f565b602082019050919050565b6000602082019050818103600083015261117481611138565b9050919050565b7f546f75726e616d656e74206e6f7420656e646564000000000000000000000000600082015250565b60006111b160148361104c565b91506111bc8261117b565b602082019050919050565b600060208201905081810360008301526111e0816111a4565b9050919050565b7f416c72656164792070616964206f757400000000000000000000000000000000600082015250565b600061121d60108361104c565b9150611228826111e7565b602082019050919050565b6000602082019050818103600083015261124c81611210565b9050919050565b7f4f6e6c792077696e6e65722063616e20636c61696d0000000000000000000000600082015250565b600061128960158361104c565b915061129482611253565b602082019050919050565b600060208201905081810360008301526112b88161127c565b9050919050565b6000819050919050565b6112da6112d582610c30565b6112bf565b82525050565b60008160601b9050919050565b60006112f8826112e0565b9050919050565b600061130a826112ed565b9050919050565b61132261131d82610c86565b6112ff565b82525050565b600061133482856112c9565b6020820191506113448284611311565b6014820191508190509392505050565b600081905092915050565b7f19457468657265756d205369676e6564204d6573736167653a0a333200000000600082015250565b6000611395601c83611354565b91506113a08261135f565b601c82019050919050565b6000819050919050565b6000819050919050565b6113d06113cb826113ab565b6113b5565b82525050565b60006113e182611388565b91506113ed82846113bf565b60208201915081905092915050565b7f496e76616c6964207369676e6174757265000000000000000000000000000000600082015250565b600061143260118361104c565b915061143d826113fc565b602082019050919050565b6000602082019050818103600083015261146181611425565b9050919050565b7f4e487b7100000000000000000000000000000000000000000000000000000000600052601160045260246000fd5b60006114a282610c30565b91506114ad83610c30565b92508282019050808211156114c5576114c4611468565b5b92915050565b7f546f75726e616d656e74206e6f74206f70656e00000000000000000000000000600082015250565b600061150160138361104c565b915061150c826114cb565b602082019050919050565b60006020820190508181036000830152611530816114f4565b9050919050565b7f546f75726e616d656e7420656e64656400000000000000000000000000000000600082015250565b600061156d60108361104c565b915061157882611537565b602082019050919050565b6000602082019050818103600083015261159c81611560565b9050919050565b7f496e636f727265637420656e7472792066656500000000000000000000000000600082015250565b60006115d960138361104c565b91506115e4826115a3565b602082019050919050565b60006020820190508181036000830152611608816115cc565b9050919050565b600061161a82610c30565b91507fffffffffffffffffffffffffffffffffffffffffffffffffffffffffffffffff820361164c5761164b611468565b5b600182019050919050565b600060408201905061166c6000830185610d3a565b6116796020830184610d3a565b9392505050565b611689816113ab565b82525050565b600060ff82169050919050565b6116a58161168f565b82525050565b60006080820190506116c06000830187611680565b6116cd602083018661169c565b6116da6040830185611680565b6116e76060830184611680565b95945050505050565b7f496e76616c6964207369676e6174757265206c656e6774680000000000000000600082015250565b600061172660188361104c565b9150611731826116f0565b602082019050919050565b6000602082019050818103600083015261175581611719565b905091905056fea26469706673582212201ca0ab3cbfc2664205bbc9b207daee00460fdcb2d0ce94795ca7d4d2ba4043ef64736f6c634300081c0033",
  "linkReferences": {},
  "deployedLinkReferences": {}
}